:1019BD006D313042006D313242006D313442006D77
:1019CD00313642006D323042006D323442006D339B
:1019DD003242006D3438006D3634004E4F4E005398
:1019ED00554E004D4F4E005455450057454400543B
:1019FD0048550046524900534154004A414E004655
:101A0D004542004D415200415052004D4159004A4E
:101A1D00554E004A554C0041554700534550004F17
:101A2D004354004E4F560044454300534554204403
:101A3D0041544520414E442054494D4520202020FD
:101A4D0020200057524954494E4720444154412EBD
:101A5D002E2E20574149542120200044415441202D
:101A6D005355434345535346554C4C5920534156BA
:101A7D004544004552524F52202020202020202046
:101A8D0020202020202020202020005320257320DE
:101A9D0025730D00662025730D00742022257322F9
:101AAD002025752025750D00786920257520257553
:101ABD002025750D006D2025750D0030303030302E
:101ACD003000464646464646002A092A002A092A7B
:101ADD00092A002A092A092A092A00252D356275A5
:101AED00204600252D3562752043003233343500F4
:101AFD0025732000256275202020003230253032DC
:101B0D0062750025634D202000534554204D4F4EE6
:101B1D00544820005345542044415445202000533F
:101B2D004554205945415220200053455420484FDB
:101B3D005552202000534554204D494E55544500D3
:101B4D0053455420414D2F504D2000505245535375
:101B5D0020444F4E45002D2D2D2D00257320253071
:101B6D003262752C2032302530326275002532629A
:101B7D00753A25303262753A25303262752025630B
:0A1B8D004D20003030464630300095
:10242B00C106C104C107C10FC10A52082C19BD193D
:10243B00C219C719CC19D119D619DB19E019E4C186
:10244B000242084200014100120041022A004108E9
:10245B00590050001419E819EC19F019F419F8196E
:10246B00FC1A001A045A0DD819E81A081A0C1A107B
:10247B001A141A181A1C1A201A241A281A2C1A3071
:10248B001A3448095C1A381A501A681A8042000428
:10249B0000004200060000420008000041000B0053
:1024AB0041000C0041000D0041000E0041000F00E7
:0424BB0041001000CC
:1029F400AF84E4900E41F0A3F075840F758A838F41
:012A0400844D
:012A050022AE
:10289C00AF8475840F75E12F75E20175E3C475A4DF
:1028AC000175A50175A7CA759C0F759D04E4F59E6D
:1028BC00759F807580FF7590FF75A0FF75B0FF75D3
:0F28CC00C8FF75D8FF75E8FF75F8FFC2FF8F844E
:0128DB0022DA
:0D2A440075A89243E70143E74043E60A22EC
:1028DC00AF84E4F584F5C875C90875CAF375CBFFE8
:1028EC0085CBCD85CACC75C804F584759850759187
:0628FC000575A8908F8411
:0129020022B2
:072A510075FFDE75FFAD22E9
:030023000217D3EE
:0D17D300C0E0C0F0C083C082C0D075D0104F
:1017E000900DF8E584F0E4FBFAA312069C000000DB
:1017F00000758400209803021919C298900011E521
:1018000099F0900DC9E0FEA3E0FFC3EE94024003FF
:101810000218D8900011E0FD640D601D742C2FF5A6
:101820008274023EF583EDF0900DCAE004F070067C
:10183000900DC9E004F002191990022CE0FF647BBE
:101840007026A3E06463701AA3E0B46D15A3E0B43E
:101850007010A3E0B4650BA3E0B47D06D206D204F9
:101860008043C206C204803DEF64287034FAFBD383
:10187000900DCAE09B900DC9E09A401F742C2BF587
:101880008274023AF583E0FF74242BF58274003AE7
:10189000F583EFF00BBB00010A80D4C207D20F80A2
:1018A00004D207C20F7A007B00D3900DCAE09B9050
:1018B0000DC9E09A4013742C2BF58274023AF5831B
:1018C000E4F00BBB00010A80E0900DCEE4F0A3F041
:1018D000900DC9F0A3F08041900DC9E0FEA3E0FF98
:1018E000900DCEE0FCA3E0FDC39FEC9E501C742C39
:1018F0002DF58274023CF583E4F0900DCFE004F006
:101900007006900DCEE004F080CE900DCEE4F0A3F2
:10191000F0900DC9F0A3F0C20F2099030219ACC2D8
:1019200099300C030219AA900DD1E0FEA3E0242CFB
:10193000F58274043EF583E0F599900DD2E004F051
:101940007006900DD1E004F0209913900DF9120665
:1019500067E47B487A26F9F8D312065650EAE47F0A
:10196000487E26FDFC900DF9E0F8A3E0F9A3E0FA2B
:10197000A3E0FBC31206564002D299900DF912065D
:101980009C00000000C3900DD1E094044004E4F0FA
:10199000A3F0900DCCE0FEA3E0FF900DD1E0B516D2
:1019A0000BA3E0B51706D20C8002D205900DF8E02B
:0219B000F584BC
:0B19B200D0D0D082D083D0F0D0E03243
:062654007B017A0E798F74
:10265A00900F0FE584F0120585604E200C14900D42
:10266A00CCE0FEA3E0FF900DD1E06E7003A3E06F13
:10267A00602E120585FF900DCCE475F0011206322A
:10268A00FC742C25F0F58274043CF583EFF0C390BA
:10269A000DCCE094044004E4F0A3F0300C02C20C28
:1026AA00740129F9E43AFA80AD300507C205E4F568
:0926BA0084D299900F0FE0F58421
:0126C30022F4
:10212C00A3F0A37401F0A3E4F0A3F07493A3F07BE9
:05213C00FF7A1A79CFC3
:0B214100900E81EBF0A3EAF0A3E9F0A0
:10214C00900F1274FFF0A3741AF0A37498F0900E11
:10215C0081E0F9A3E0FAA3E0900F15C9F0A3EAF02F
:10216C00A3E9F0900E84E0F9A3E0FAA3E0900F1835
:10217C00C9F0A3EAF0A3E9F07B017A0E798F121172
:10218C0091122654900F1274FFF0A3741AF0A374DA
:10219C00A1F0900E87E025E0242CF582E43408F5BC
:1021AC0083E0FEA3E0AA06F9900F1574FFF0A3EAF2
:1021BC00F0A3E9F07A0E798F121191122654900F38
:1021CC001274FFF0A3741AF0A374A7F0900E88E0B9
:1021DC00F9A3E0FAA3E0900F15C9F0A3EAF0A3E984
:1021EC00F0900E8BE0FFA3E0900F18CFF0A3EFF070
:1021FC00900E8DE0FFA3E0900F1ACFF0A3EFF07AD2
:0F220C000E798F1211917B017A0E798F02265A6B
:0C285300900F3FECF0A3EDF0AD03AC02E1
:10285F00900F1274FFF0A3741AF0A374B5F0A3EEE7
:10286F00F0A3EFF0900F3FE0FFA3E0900F17CFF032
:10287F00A3EFF0AF05A3ECF0A3EFF07B017A0F7994
:0D288F00411211917B017A0F794102265A06
:10002600900E43EFF07E0012292A900E43E09000D6
:0300360013F022A2
:10292A00900F1274FFF0A3741AF0A374C2F0A3EE0E
:10293A00F0A3EFF07B017A0E79441211917B017AB0
:06294A000E794402265A3A
:10000300AC07E412027E7B667A6679E6783F1201DA
:0F0013006EE4FBFA7904784212007D1202B222E9
:1024C000EE600302254BEF24CE60161460221460E8
:1024D0002E24037076900F12E4F0A3F0A3742A80E8
:1024E0002B900F1274FFF0A3741AF0A374D6801C03
:1024F000900F1274FFF0A3741AF0A374DA800D9099
:102500000F1274FFF0A3741AF0A374E0F07B017A49
:102510000D7986121191900E8474FFF0A3741AF055
:10252000A374CFF0A37406F0A37401F0A3740DF0AC
:10253000A37486F0A3E4F0A37432F0A3E4F0A374D0
:0C25400032F07BFF7A1A79C81221412288
:102797007F36122950900B65EFF012000390084422
:1027A700EFF0900F1274FFF0A3741AF0A374E8F01F
:1027B700A3EFF07B017A0D7986121191900E847444
:1027C700FFF0A3741AF0A374CFF0A37405F0A374F9
:1027D70001F0A3740DF0A37486F0A37401F0A37441
:1027E7000EF0A3E4F0A374D7F07BFF7A1A79C8023E
:0227F70021417E
:1027F9007F36122950900B65EFF0900F1274FFF09D
:10280900A3741AF0A374F0F0A3EFF07B017A0D79A9
:1028190086121191900E8474FFF0A3741AF0A374B8
:10282900CFF0A37405F0A37401F0A3740DF0A374A1
:1028390086F0A37401F0A3740EF0A3E4F0A374D797
:0A284900F07BFF7A1A79C8022141E2
:10071300E4900E41F0A3F0900013E0640260030242
:1007230007A8900024E064287041A3E024CE60175A
:1007330014601714601724F36016146021241160E9
:1007430003020BF5020B30020B34020AC2020A4BFE
:100753001227F9900842E4F0A304F0020BF51227E4
:1007630097E4900842F0A3F0020BF5E4900E41F0F9
:10077300A3F0900E41E0FEA3E0FF2424F582740071
:100783003EF583E07003020BF574242FF5827400A9
:100793003EF583E4F0900E42E004F070D5900E41F4
:1007A300E004F080CD900013E064037070900024A7
:1007B300E06428702EA3E024CE601414601424F0A7
:1007C300601314601424136003020BF5020B300250
:1007D3000B34020AC27F1880027F197E0012292A75
:1007E300020BF5E4900E41F0A3F0900E41E0FEA35E
:1007F300E0FF2424F58274003EF583E07003020BCE
:10080300F574242FF58274003EF583E4F0900E42D4
:10081300E004F070D5900E41E004F080CD90001319
:10082300E064046003020AAA900024E064286003E1
:10083300020A70A3E01206ED086C31086F320872E9
:1008430033087541089F4208C94308F344091D450D
:10085300094746097147099A4809C34909EC4A0AF5
:1008630028580A305900000BF5020B30020B3402F2
:100873000AC2900847E0FEA3E0FF64044E7003023F
:100883000BF574F42FF9740D3EFA7B01C0031B9032
:100893000F12EBF0A3F0A37430020A13900847E0A1
:1008A300FEA3E0FF64044E7003020BF574F42FF90A
:1008B300740D3EFA7B01C0031B900F12EBF0A3F003
:1008C300A37431020A13900847E0FEA3E0FF640417
:1008D3004E7003020BF574F42FF9740D3EFA7B018D
:1008E300C0031B900F12EBF0A3F0A37432020A13A0
:1008F300900847E0FEA3E0FF64044E7003020BF58B
:1009030074F42FF9740D3EFA7B01C0031B900F1290
:10091300EBF0A3F0A37433020A13900847E0FEA39D
:10092300E0FF64044E7003020BF574F42FF9740DA9
:100933003EFA7B01C0031B900F12EBF0A3F0A374EC
:1009430034020A13900847E0FEA3E0FF64044E70EC
:1009530003020BF574F42FF9740D3EFA7B01C00307
:100963001B900F12EBF0A3F0A37435020A13900847
:1009730047E0FEA3E0FF64044E7003020BF574F43A
:100983002FF9740D3EFA7B01C0031B900F12EBF09D
:10099300A3F0A374368079900847E0FEA3E0FF64D8
:1009A300044E7003020BF574F42FF9740D3EFA7BB9
:1009B30001C0031B900F12EBF0A3F0A37437805018
:1009C300900847E0FEA3E0FF64044E7003020BF5BA
:1009D30074F42FF9740D3EFA7B01C0031B900F12C0
:1009E300EBF0A3F0A374388027900847E0FEA3E060
:1009F300FF64044E7003020BF574F42FF9740D3E7B
:100A0300FA7B01C0031B900F12EBF0A3F0A3743920
:100A1300F0D003121191900848E02FF0900847E0BE
:100A23003EF0020BF5900F12E4F0A3802F7B017AC6
:100A33000D79F474FF901AF86401700A74F46582F6
:100A43007004740D658370057F05020B3AE490080A
:100A530047F0A3F0FA900F12CAF0A3EAF0A37430A0
:100A6300F07B017A0D79F4121191020BF5E4900EEB
:100A730041F0A3F0900E41E0FEA3E0FF2424F582B1
:100A830074003EF583E07003020BF574242FF582A6
:100A930074003EF583E4F0900E42E004F070D590CC
:100AA3000E41E004F080CD900013E06405704E9099
:100AB3000024E0B4280DA3E024CD6003020BF57FEE
:100AC300048074E4900E41F0A3F0900E41E0FEA385
:100AD300E0FF2424F58274003EF583E07003020BEB
:100AE300F574242FF58274003EF583E4F0900E42F2
:100AF300E004F070D5900E41E004F080CD90001337
:100B0300E064066003020BF5900024E064286003B0
:100B1300020BBEA3E024CE601814601924F2601DFA
:100B230014601C147003020BF52412702B7F0280D7
:100B3300067F0380027F04120026020BF580197FD3
:100B430036122950900B65EFF0900F1274FFF0A34B
:100B5300741AF0A374F0801F7F36122950900B652E
:100B6300EFF0120003900844EFF0900F1274FFF0BF
:100B7300A3741AF0A374E8F0A3EFF07B017A0D7964
:100B830086121191900E8474FFF0A3741AF0A3746B
:100B9300CFF0A37405F0A37401F0A3740DF0A37454
:100BA30086F0A3E4F0A374FFF0A3E4F0A374D7F0FA
:100BB3007BFF7A1A79C81221418037E4900E41F005
:100BC300A3F0900E41E0FEA3E0FF2424F58274001D
:100BD3003EF583E0601C74242FF58274003EF58398
:100BE300E4F0900E42E004F070D8900E41E004F07F
:100BF30080D0E4900E41F0A3F0900E41E0FEA3E01C
:100C0300FF2424F58274003EF583E0601C74242FD6
:100C1300F58274003EF583E4F0900E42E004F07038
:090C2300D8900E41E004F080D0ED
:010C2C0022A5
:10221B00900E4312069C00000000900E47E584F0E0
:10222B00E4F584208675900E431206677BA07A86B0
:10223B0079017800D31206564061C287E4900E41B3
:10224B00F0A3F0900E42E004F07006900E41E00413
:10225B00F0900E41E07003A3E0F470E7D287208783
:10226B0014900E431206677BA07A8679017800D30F
:10227B0012065650E9E4900E41F0A3F0C3900E42C3
:10228B00E0940A900E41E0648094805096A3E004A1
:10229B00F070E9900E41E004F080E175C00775CF56
:1022AB009143C040900E47E0F584C202E49008577A
:1022BB00F090084AF0900849F0900855F0900DC73F
:0522CB00F0900964F031
:0122D00022EB
:1029AD00AF84758401E4F5C8F5C975CBE275CA7AB3
:0A29BD0085CBCD85CACCD2CA8F8429
:0129C70022ED
:03007300022971EE
:07297100C0D075D000C007C3
:10297800AF8475840053C0BF43C0408F84C2CFC2A8
:03298800028F8437
:05298B00D007D0D0329E
:1029C80074DB2FF582E43408F583EDF0EFFD7C002D
:0929D8007B017A007F2002273008
:10295000900E43EFF0FD7C007B017A007F20122374
:1029600080900E43E0245BF582E43408F583E0FFB9
:012970002244
:0F2A1700AE05EFFD7C00EEFB7A007FD00227308A
:0F2A2600AE05EFFD7C00EEFB7A007FD00223802F
:10238000900E83EFF0A3ECF0A3EDF0A3EAF0A3EB43
:01239000F05C
:10239100A3E584F0E4F58420C7FD2002FA900E88BD
:1023A100E0F584900E83E0FF245C600824D460048F
:1023B10024B0700E900E84E0FCA3E0FDE4FBFA1261
:1023C1002730E4F58420C7FD2002FA900E83E090C7
:1023D1000840F0900E84E0FFA3E0900850CFF0A3F6
:1023E100EFF0900E86E0FFA3E0900DD5CFF0A3EFC4
:1023F100F0D202D210D2C520C7FD2002FA900E8879
:10240100E0F584900E83E0245C601824D4600C24F1
:10241100B0701690084AE0701080F8900964E0707E
:092421000880F8900855E060FA0B
:01242A00228F
:02273000A907F7
:10273200E4900E89F0A3F0A3F0A3E584F0E4F5841D
:1027420020C7FD2002FA900840E9F0AF059008503A
:10275200ECF0A3EFF0E92455600824DB601A24B002
:10276200702C900224EAF0A3EBF0D202C210D2C580
:10277200900857E0701880F8AF03900224EAF0A3A3
:10278200EFF0D202C210D2C5900DC7E060FA900EEF
:042792008CE0F5845E
:012796002220
:03003B00020C2D87
:0D0C2D00C0E0C0F0C083C082C0D075D01000
:100C3A00C214E5C1131313541F14B40B004003026A
:100C4A0010F0900C5A75F003A4C58325F0C5837380
:100C5A00020C7B020C7B020CA0020CDD020D7A0254
:100C6A000E1F0210EC020EB1020EC7020F5E021036
:100C7A005D900840E0F5C253C2FEA210E43342C2BE
:100C8A00C2C5900002E4F0A3F0900000F0A3F09037
:100C9A00000AF00210F2900840E0FFB4201E90080B
:100CAA0050E0FCA3E0FD64AB4C7007D2C4C2020260
:100CBA0010F28DC2900857E4F00210F2EF64D0608F
:100CCA00030210F2900850A3E0F5C2900DC7E4F0B9
:100CDA000210F2900840E0FFB4202CC3900005E017
:100CEA00940A900004E094005011A3E004F0700606
:100CFA00900004E004F0D2C50210F2900004E4F07F
:100D0A00A3F09008578065EFB4D02CC3900007E099
:100D1A00940A900006E094005011A3E004F07006D3
:100D2A00900006E004F0D2C50210F2900006E4F04A
:100D3A00A3F0900DC78035900840E064A4600302D8
:100D4A0010F2C3900009E0940A900008E094005061
:100D5A0011A3E004F07006900008E004F0D2C50286
:100D6A0010F2900008E4F0A3F090084904020F542E
:100D7A00900840E0F96420704A900224E0FEA3E063
:100D8A00FF900000E0FCA3E0FDC39FEC9E502A9078
:100D9A000851E02DFF900850E03CFE74DB2FF582ED
:100DAA0074083EF583E0F5C2900001E004F0705843
:100DBA00900000E004F00210F2D2C4C20290085778
:100DCA000210E7E964D060030210F2900224E0FE08
:100DDA00A3E0FF900000E0FCA3E0FDC39FEC9E505F
:100DEA002A900851E02DFF900850E03CFE74DB2F5A
:100DFA00F58274083EF583E0F5C2900001E004F044
:100E0A007006900000E004F00210F2D2C4C2029010
:100E1A000DC70210E7900840E0FFB42029C39000F4
:100E2A0005E0940A900004E094005011A3E004F055
:100E3A007006900004E004F0D2C50210F29000049B
:100E4A00E4F0A3020F54EFB4D029C3900007E09452
:100E5A000A900006E094005011A3E004F070069096
:100E6A000006E004F0D2C50210F2900006E4F0A3F6
:100E7A00020F54900840E064A460030210F2C39089
:100E8A000009E0940A900008E094005011A3E004DD
:100E9A00F07006900008E004F0D2C50210F290004B
:100EAA0008E4F0A3020F54900DD5E07004A3E064A7
:100EBA00017005C2C20210F2D2C20210F2900840BA
:100ECA00E0FFB42028C3900005E0940A900004E0F3
:100EDA0094005011A3E004F07006900004E004F0BE
:100EEA00D2C50210F2900004E4F0A3805DEFB4D002
:100EFA0028C3900007E0940A900006E0940050117D
:100F0A00A3E004F07006900006E004F0D2C50210D7
:100F1A00F2900006E4F0A38031900840E064A460F7
:100F2A00030210F2C3900009E0940A900008E094CA
:100F3A00005011A3E004F07006900008E004F0D21B
:100F4A00C50210F2900008E4F0A3F0D2C4C202D2A3
:100F5A00140210F2900840E0F96420704F900DD509
:100F6A00E0FEA3E0FF900002E0FCA3E0FDC39FECDB
:100F7A009E5031900851E02DFF900850E03CFE74DD
:100F8A005B2FF58274083EF583E5C2F0D2C2900069
:100F9A0003E004F07006900002E004F090084AE4CE
:100FAA00F00210F2C2C290084A0210E7E964D07057
:100FBA0052900DD5E0FEA3E0FF900002E0FCA3E012
:100FCA00FDC39FEC9E5031900851E02DFF900850D0
:100FDA00E03CFE745B2FF58274083EF583E5C2F0AF
:100FEA00900964E4F0D2C2900003E004F070069025
:100FFA000002E004F00210F29009647401F0C2C227
:10100A000210F2E964A460030210F2900DD5E0FE2A
:10101A00A3E0FF900002E0FCA3E0FDC39FEC9E501A
:10102A002AAFC274652DF58274093CF583EFF090FE
:10103A000845F0D2C2900003E004F0700690000266
:10104A00E004F0900855E4F00210F2C2C29008558C
:10105A000210E7900840E0FFB4202C900002E0FC68
:10106A00A3E0FD900851E02DFD900850E03CFC748F
:10107A005B2DF58274083CF583E5C2F0D2C4C20246
:10108A00D2C290084A8056EFB4D02F900002E0FEF8
:10109A00A3E0FF900851E02FFF900850E03EFE7455
:1010AA005B2FF58274083EF583E5C2F090096474FB
:1010BA0001F0D2C4C202D2C2802E900840E0B4A489
:1010CA0027900002E0FEA3E02465F58274093EF54C
:1010DA0083E5C2F0D2C4C202D2C29008557401F0AC
:1010EA008006D2148002D21430142A53C0BF43C0DF
:1010FA0040C2C5C2C4C2C2C202C214900857740117
:10110A00F090084AF0900DC7F0900964F0900849F1
:07111A00F0900855F0C2C37C
:0B112100D0D0D082D083D0F0D0E032DC
:102A06009008E97404F0A37430F07D027F0E022A68
:012A160017A8
:1025D800900DF2E0FF1229E19008DBEFF09002275E
:1025E800E0FF1229E19008DCEFF090085AE0FF12B2
:1025F80029E19008DEEFF0900846E0FF1229E1900B
:1026080008DFEFF090084BE0FF1229E19008E0EFB7
:10261800F0900854E0FF1229E19008E1EFF09008EB
:1026280056E0FF1229E1EF4440FF900228E0FEB493
:102638005006EF4460FF8008EEB44104EF545FFF9A
:0C2648009008DDEFF07D07E4FF022A1788
:101B9700E4900E81F0A3F07D07FF122A2690085BE0
:101BA700E0FF122A35900DF2EFF090085CE0FF128B
:101BB7002A35900227EFF090085DE0FF30E6179096
:101BC70008587401F0EF90022830E5057450F08052
:101BD7000A7441F08005E4900858F0EF541FFF1293
:101BE7002A35900856EFF0BF0C10900228E0B44158
:101BF70003E48016900856E08010900228E09008D1
:101C070056B45005E0240C8001E090083EF090089F
:101C17005EE0FF122A3590085AEFF090085FE0FF68
:101C2700122A35900846EFF0900860E0FF122A3537
:101C370090084BEFF0900861E0FF122A35900854A6
:101C4700EFF090000BE0FF90084BE0B5071890000D
:101C57000CE0FF900846E0B5070C90000DE0FF9000
:101C67000854E06F6002D20390000EE0FF90085620
:101C7700E0FEB5071890000FE0FF900227E0B507D8
:101C87000C900010E0FF900DF2E06F6002D213900D
:101C97000228E0FBB4501FEE240CFFE433FE7C0067
:101CA7007D3C122990900227E02FFFEC3E900E8199
:101CB700F0A3EFF08028EBB44124900856E0B40C71
:101CC70002E4F0900856E075F03CA4FF900227E08C
:101CD7007C002FFEEC35F0900E81F0A3CEF0900E35
:101CE70081E0FAA3E0FB7C007D3CFFAE021205DD3C
:101CF70090022AEDF07C007D3CAF03AE021205DDB9
:101D0700900859EFF0900846E090000CF090084BCF
:101D1700E090000BF0900854E090000DF09008560A
:101D2700E090000EF0900227E090000FF0900DF287
:051D3700E0900010F037
:011D3C002284
:101EC40090084FE07043900DC8E004F0D212E0D3C4
:101ED400940C40037401F0900F1274FFF0A3741A71
:101EE400F0A374FDF0900DC8E025E024D8F582E459
:101EF400340DF583E0FEA3E0AA06F9900F1574FFF4
:101F0400F0A3EAF0A3E902200490084FE064017012
:101F140029900DC6E004F0D211E0D3941F4003745D
:101F240001F0900F1274FFF0A3741BF0A37401F07E
:101F3400900DC6E0900F1502200490084FE0640253
:101F44007029900DCBE004F0D200E0D394634003F9
:101F54007463F0900F1274FFF0A3741BF0A3740861
:101F6400F0900DCBE0900F1502200490084FE06430
:101F7400037028900DD0E004F0D201E0D3940C401B
:101F8400037401F0900F1274FFF0A3741BF0A37498
:101F940001F0900DD0E0900F15806590084FE0643B
:101FA4000470279008DAE004F0D20DE0D3943B40AB
:101FB40002E4F0900F1274FFF0A3741BF0A37401F9
:101FC400F09008DAE0900F15803690084FE0640531
:101FD400706490095AE0FFB450057441F0800AEF30
:101FE400B4410690095A7450F0D20E900F1274FF47
:101FF400F0A3741BF0A37410F090095AE0900F152D
:10200400F07B017A0F79C1121191900E8474FFF064
:10201400A3741AF0A374C8F0A37403F0A37401F0BA
:10202400A3740FF0A374C1F0A37401F0A3E4F0A3AC
:06203400F074D7122139FF
:01203A002283
:101D3D0090084FE07043900DC8E014F0D212E0C34C
:101D4D0094015003740CF0900F1274FFF0A3741AE9
:101D5D00F0A374FDF0900DC8E025E024D8F582E4E1
:101D6D00340DF583E0FEA3E0AA06F9900F1574FF7C
:101D7D00F0A3EAF0A3E9021E8C90084FE064017015
:101D8D0029900DC6E014F0D211E0C39401500374F4
:101D9D001FF0900F1274FFF0A3741BF0A37401F0E9
:101DAD00900DC6E0900F15021E8C90084FE0640256
:101DBD00702D900DCBE0D394004005E014F080051C
:101DCD00E4900DCBF0D200900F1274FFF0A3741BB2
:101DDD00F0A37408F0900DCBE0900F15021E8C90BF
:101DED00084FE06403702D900DD0E0D394004005B2
:101DFD00E014F08006900DD0740CF0D201900F120B
:101E0D0074FFF0A3741BF0A37401F0900DD0E0905B
:101E1D000F15806B90084FE06404702D9008DAE088
:101E2D00D394004005E014F080069008DA743BF07E
:101E3D00D20D900F1274FFF0A3741BF0A37401F078
:101E4D009008DAE0900F15803690084FE064057029
:101E5D006590095AE0FFB450057441F0800AEFB463
:101E6D00410690095A7450F0D20E900F1274FFF083
:101E7D00A3741BF0A37410F090095AE0900F15F0A5
:101E8D007B017A107901121191900E8474FFF0A3E9
:101E9D00741AF0A374C8F0A37403F0A37401F0A333
:101EAD007410F0A37401F0A37401F0A3E4F0A3F097
:061EBD00A374D712213AC4
:011EC30022FC
:1015AF0090084FE004F0E0700302174A90084FE0F4
:1015BF0064017035D211900E8474FFF0A3741AF089
:1015CF00A374C8F0A37403F0A374FFF0A3741BF00B
:1015DF00742112212C900F1274FFF0A3741BF0A32F
:1015EF007401F0900DC60216ED90084FE064027082
:1015FF0035D200900E8474FFF0A3741AF0A374C850
:10160F00F0A37403F0A374FFF0A3741BF0742C12F7
:10161F00212C900F1274FFF0A3741BF0A37408F029
:10162F00900DCB0216ED90084FE064037036D20197
:10163F00900E8474FFF0A3741AF0A374C8F0A3740F
:10164F0003F0A374FFF0A3741BF0A3743712212DC2
:10165F00900F1274FFF0A3741BF0A37401F0900DA0
:10166F00D00216ED90084FE064047037D20DD20E01
:10167F00900E8474FFF0A3741AF0A374C8F0A374CF
:10168F0003F0A374FFF0A3741BF0A3744212212D77
:10169F00900F1274FFF0A3741BF0A37401F0900865
:1016AF00DA803B90084FE06405703AD20E900E84BA
:1016BF0074FFF0A3741AF0A374C8F0A37403F0A31B
:1016CF0074FFF0A3741BF0A3744D12212D900F1211
:1016DF0074FFF0A3741BF0A37410F090095AE090FC
:1016EF000F1502179B90084FE064067042D20E90C0
:1016FF000E8474FFF0A3741AF0A374C8F0A37403DC
:10170F00F0A374FFF0A3741BF0A3745812212D9053
:10171F000E8474FFF0A3741AF0A374C8F0A37403BB
:10172F00F0A374FFF0A3741BF0A374630217C290AD
:10173F00084FE0640760030217D2F0D212900E84B4
:10174F0074FFF0A3741AF0A374C8F0A37403F0A38A
:10175F0074FFF0A3741BF0A3741612212D900F12B7
:10176F0074FFF0A3741AF0A374FDF0900DC8E02578
:10177F00E024D8F582E4340DF583E0FEA3E0AA0659
:10178F00F9900F1574FFF0A3EAF0A3E9F07B017A4B
:10179F00107941121191900E8474FFF0A3741AF016
:1017AF00A374C8F0A37403F0A37401F0A37410F032
:1017BF00A37441F0A37401F0A3E4F0A3F0A374D7D2
:0317CF0012213AAA
:0117D20022F4
:1022D100301216900DC8E0FF1229E19008E0EFF0EE
:1022E1007D017F05122A17C212301116900DC6E02A
:1022F100FF1229E19008DFEFF07D017F04122A1718
:10230100C211300016900DCBE0FF1229E19008E1D7
:10231100EFF07D017F06122A17C200200103300E63
:102321003D900DD0E0FF1229E1300E2490095AE0D2
:10233100FE900228F0EF4440FFEEB45006EF4460F7
:10234100FF800B90095AE0B44104EF545FFFC20EC5
:102351009008DDEFF07D017F02122A17C201300DD6
:10236100169008DAE0FF1229E19008DCEFF07D0118
:0F2371007F01122A17C20DE490084FF0021B974C
:10003E00E4900DF2F0900227F0900856F09002280E
:10004E007450F090085A7401F0900846F090084BE6
:10005E00F0E4900854F0900229F090085804F00251
:02006E0025D893
:1029E100EF75F00A84C454F0FEEF75F00A84E5F047
:0229F1004EFF97
:0129F30022C1
:0E2A3500EFC4540F75F00AA4FEEF540F2EFFED
:012A43002270
:10203B00121B97900F1274FFF0A3741BF0A374681C
:10204B00F090084BE025E024D8F582E4340DF583BD
:10205B00E0FEA3E0AA06F9900F1574FFF0A3EAF0D7
:10206B00A3E9F0900846E0900F18F0900854E09028
:10207B000F19F07B017A0E7941121191900E847435
:10208B00FFF0A3741AF0A374CFF0A37402F0A3149F
:10209B00F0A3740EF0A37441F0A37401F0A37413B6
:1020AB00F0A37401F0A3749AF07BFF7A1A79C8122B
:1020BB002141C203900F1274FFF0A3741BF0A374A1
:1020CB007AF0900856E0900F15F0900227E0900FF1
:1020DB0016F0900DF2E0900F17F0900228E0900FA1
:1020EB0018F07B017A0E7941121191900E8474FFD6
:1020FB00F0A3741AF0A374CFF0A37402F0A314F03E
:10210B00A3740EF0A37441F0A37401F0A37413F045
:10211B00A37401F0A374AEF07BFF7A1B79900221BC
:01212B004172
:1026C400E4900DFDF0A3F0900E3FF0A3F0122A5118
:1026D4001229F412289C122A441228DC12221B12FA
:1026E40029ADD205E4900DCCF0A3F0900DD1F0A368
:1026F400F0D20C7F02120026900013E0B402119075
:102704000842E07004A3E0640170051227F9801404
:10271400900013E0B4020D900842E07002A3E07050
:0C2724000312279712071312203B80CCF1
:1000760002031EE86480F8E933E83360110460F097
:10008600ED33EC337009E8FCE9FDEAFEEBFF2204F0
:1000960060DED3EB9FEA9EE99DE8C2E78CF0C2F7EB
:1000A60095F0400CE8CCF8E9CDF9EACEFAEBCFFBB7
:1000B6001202E985D0F05804700320D5B3E8047025
:1000C600075002B2D502032892D5EC0460F7E4CCBF
:1000D600C0E0C398F8603B94186008400DD0E0FB80
:1000E600020300E4FBFAC9FC8028E830E406E4C910
:1000F600FBE4CAFCE830E305E4C9CACBFCE85407D4
:100106006010F8C3E913F9EA13FAEB13FBEC13FCDE
:10011600D8F130F52FC3E49CFCEF9BFFEE9AFEED81
:1001260099FDD0E0FBEF4E4D4C701222DB0302032B
:1001360025EC2CFCEF33FFEE33FEED33FDED30E71F
:10014600EB020300EF2BFFEE3AFEED39FDD0E0FBAC
:1001560050130BBB0003020328ED13FDEE13FEEF55
:0801660013FFEC13FC0203007F
:10016E00EC4D6011E8497017ED33EC3304600DE48B
:10017E00FCFFFEFD22E933E8330470F802031E1281
:10018E0002E958046009E4CC248150062850090283
:10019E000328284003020325C0E0EB4A7044B980CF
:1001AE0006D0E0FB020314EF4E701CBD8008EBFF7F
:1001BE00EAFEE9FD80EBE98DF0A4FEE5F0020257C0
:1001CE00E9CDF9EAFEEBFFEF89F0A4FCE5F0CE896C
:1001DE00F0A42EFFE435F0CD89F0A42DFEE435F029
:1001EE008067EF4E7005BD80D780C3EF8BF0A4AC57
:1001FE00F0EE8BF0A42CFCE435F0F8EF8AF0A42C92
:10020E00E5F038FCE433CB8DF0A42CFCE5F03BF8A4
:10021E00EE8AF0A42CFCE5F038F8E433CF89F0A494
:10022E002CFCE5F038CF3400CE89F0A42FFFE5F09A
:10023E003EFEE433C98DF0A42EFEE5F039CD8AF0F2
:10024E00A42FFFE5F03EFEE43DFD33D0E0FB50076A
:10025E000BBB000F020328EC2CFCEF33FFEE33FE3A
:06026E00ED33FD02030068
:1002740075F020800E75F010800575F0087D007E05
:10028400007F003392D530D503120648EC3340107A
:10029400EF33FFEE33FEED33FDEC33FCD5F0ED220E
:0E02A400E5F0247EA2D513CC92E7CDCEFF224A
:1002B200EDD2E7CD33EC3392D524814006E4FFFE44
:1002C200FDFC22FCE4CFCECDCC24E0501174FF80A3
:1002D200EDC3CC13CCCD13CDCE13CECF13CF047040
:0702E200F030D5DE020648F2
:10112C00E5082412F582E4340FF583E005082290DB
:10113C000F0F301C03900F12E475F0011206CD0254
:10114C0005852015E97F2ED2158018EF540F2490B9
:10115C00D43440D4FF30190BEF24BFB41A00500321
:10116C002461FFE50960021509050CE50C70020508
:10117C000B301C0E900F0FE475F0011206CDEF0230
:10118C0005CB0229037403D21C8003E4C21CF508AE
:10119C00900F0F1206E4E4F509F50BF50CE5096068
:1011AC00077F2012116F80F5750AFFC216C215C297
:1011BC0017C218C21AC21BC21D12113BFF700D3090
:1011CC001C057F00121180AF0CAE0B22B4255FC240
:1011DC00D5C21912113BFF24D0B40A00501A75F075
:1011EC000A780930D50508B6FF0106C6A426F620F4
:1011FC00D5047002D21880D924CFB41A00EF500451
:10120C00C2E5D219021472D21680C6D21580C0D291
:10121C001780BCD2D580BAD21A80B47F2012116F3D
:10122C002017077401B5090040F112112CFF12119F
:10123C006F0211A9D21DD21B809512112CFB121119
:10124C002CFA12112CF94A4B700679707A157BFF27
:10125C0020172EE509602A7E008E82758300120508
:10126C009E60060EEE650A70F0C2D5EBC0E0EAC0D7
:10127C00E0E9C0E0EE1214D3D0E0F9D0E0FAD0E00F
:10128C00FB120585FF60AAEBC0E0EAC0E0E9C0E014
:10129C0012116FD0E02401F9D0E03400FAD0E0FB59
:1012AC00E50A0460DCD50AD98087D21780A2121413
:1012BC00B560F7E50A700104120333A90A600DE565
:1012CC000A600914F50A12155DEF60F3EA30E702C3
:1012DC00F404C3995079EAF4250A0430E701E404D4
:1012EC00F50A800D1214B560C1EA050A250A12032D
:1012FC0033EA900F3EF030E701E4250A04D50A04E6
:10130C00201A01141214D3E4C0E012155D900F3EA4
:10131C00E0601320E70714F0121157802204F0D07C
:10132C00E014C0E07F00121157E50A600712114E5D
:10133C00150A800B301A0312114ED0E00211A9D0FD
:10134C00E00480C41214B5609EE50A0412033390C5
:10135C000F3EEAF0E50A201A02600104240412147C
:01136C00D3AD
:10136D0074FF04C0E012155D121157E50A201A0230
:10137D00600312114ED0E0B50AE87F45121161905D
:10138D000F3EE07F2B30E7047F2DF404C0E01211F7
:10139D006FD0E075F00A84C0F0121158D0E0121130
:1013AD00580211A9791080027908C21BC21D80084C
:1013BD00D2D5790A8004790AC2D5E50A047002F5FE
:1013CD000AE4FAFDFEFF12112CFC7B082016131205
:1013DD00112CFD7B1030150A12112CFE12112CFF51
:1013ED007B20EC3382D592D55013C3E43015069F84
:1013FD00FFE49EFEE42016039DFDE49CFCE4CBF887
:10140D00C216EC700CCFCECDCCE824F8F870F3807A
:10141D0017C3EF33FFEE33FEED33FDEC33FCEB334F
:10142D00FB994002FB0FD8E9EB301605F8D0E0C46C
:10143D0048B216C0E00AEC4D4E4F78207B0070C2CA
:10144D00EAB50A0040BCC0E01214D5D0F0D0E020BF
:10145D001604C4C0E0C4B216C0F0121158D0F0D5B5
:10146D00F0EB0211A91206ED12465313B1581217E3
:10147D004C12134213B54F13BD4413BD49122C43E7
:10148D0013C35512F04613504512BA47159050121A
:10149D001B2D121F2E12422B1223231240201579C1
:1014AD002A11DB480000123AE50AB4FF03750A065B
:1014BD0012112CFC12112CFD12112CFE12112CFFED
:1014CD00900F37020370790AA2D5201814301A092B
:1014DD00B910020404B9080104A2D5201B02500161
:1014ED00042017689217B509005034C0E07F2030F2
:1014FD0018197F30A217721B721A500F12152CC2B9
:10150D0017C21BC21AC21D7F30800F301A03E9C0EB
:10151D00E012116F301A03D0E0F9D0E0B509CC30EC
:10152D001A177F30B9100C12116F7F583019077FC1
:10153D00788003B9080312116F3017057F2D021142
:10154D006F7F20201DF87F2B201BF322921780CF59
:10155D007F00B40700500B2437F582E4340FF58378
:10156D00E0FF22286E756C6C2900D21612112C30FA
:10157D0016F8C216780930D50108F60211DB2D5088
:10158D0043495812112C2403B405004001E4901571
:10159D008B93121160743A121160D21875090402FE
:0215AD0013B178
:1002E900E9D2E7C933E833F892D5EDD2E7CD33EC5B
:0702F90033FC5002B2D522D4
:10030000EC30E7100FBF000C0EBE00080DBD00045E
:100310000BEB6014A2D5EB13FCED92E7FD2274FF0A
:10032000FCFDFEFF22E480F8A2D574FF13FC7D8063
:03033000E480EF77
:10033300F920E73624F950037907E4F42402FBE5B6
:1003430082158270021583DBF6E024FB501BE96003
:1003530014E4F0E582158270021583E004F0B40A18
:0D03630008E4F0D9EE7401F00A22C2D522A0
:10037000ED33EC3392D5FA602AB4FF33EDC2E77B5C
:10038000FF60067A037995E4227A03799E20D504EA
:100390007A037999224E614E002B494E46002D4931
:1003A0004E4600E47A08F0A3DAFC7B00740722C012
:1003B00083C082ECC0E0EDC0E0EEC0E0EFC0E0EA58
:1003C00075F010A4CAABF075F04DA42BFBE435F02A
:1003D000FCEA2410FAEB34C5FBEC34D9FCEDC2E79F
:1003E000FF75F056A4F42411C5F0F434C58FF0A4C1
:1003F0002AE5F03BE43CF020E714120545D0E0FF8D
:10040000D0E0FED0E0FDD0E0FC1204788014F404CB
:10041000120545D0E0FFD0E0FED0E0FDD0E0FC12B8
:10042000016ED082D083E0FAEDD2E7CD33EC3324F5
:1004300082FBE4C3CF33CFCE33CECD33CD33DBF32A
:100440007B0775F00A846004F0A31B0AE5F0F0A3B3
:100450008FF0740AA4FFACF08EF0740AA42CFEACEA
:10046000F050010C8DF0740AA42CFDE435F0F0A3DB
:05047000DBDE74072231
:10047500020328EC5D046005E85904700302031EBD
:100485001202E9580460F6EC4860F2EC7004FDFED7
:10049500FF22C860DB2481C85009C398600250065A
:1004A5000203259850CAF582E9294B4A7005AB82AB
:1004B50002031475F0007C1A7880C3EF9BEE9AED69
:1004C50099400DC3EF9BFFEE9AFEED99FDE842F0D2
:1004D500DC23ACF0D0E0FFD0E0FED0E0FDAB822025
:1004E500E7101BEB60BAEC2CFCEF33FFEE33FEEDAF
:1004F50033FD020300E803F830E705C0F075F000AE
:10050500EF2FFFEE33FEED33FD40B830E7C280AA92
:100515003F8000004120000042C80000447A0000EE
:10052500461C400047C35000497424004B18968070
:100535004CBEBC205A0E1BCA6753C21C749DC5AE67
:10054500FB60065407601C2323120573EB543860C7
:100555000912055F12056E12016EECF8EDF9EEFA5F
:10056500EFCB22EB12056E80F1543803241C900565
:1005750015FE93FC0EEE93FD0EEE930ECE93FF2229
:0300000002254C8A
:0C254C00787FE4F6D8FD7581230225930A
:10058500BB010689828A83E0225002E722BBFE0274
:09059500E32289828A83E49322A7
:10059E00BB010CE58229F582E5833AF583E0225012
:1005AE0006E92582F8E622BBFE06E92582F8E2225C
:0D05BE00E58229F582E5833AF583E4932276
:1005CB00BB010689828A83F0225002F722BBFE010F
:0205DB00F32209
:1005DD00BC000BBE0029EF8DF084FFADF022E4CC02
:1005ED00F875F008EF2FFFEE33FEEC33FCEE9DECCB
:1005FD00984005FCEE9DFE0FD5F0E9E4CEFD22ED11
:10060D00F8F5F0EE8420D21CFEADF075F008EF2F5A
:10061D00FFED33FD4007985006D5F0F222C398FD4B
:05062D000FD5F0EA22E8
:10063200A3F8E0C5F025F0F0E5821582700215837B
:06064200E0C838F0E822D8
:0E064800C3E49FFFE49EFEE49DFDE49CFC22C3
:10065600EB9FF5F0EA9E42F0E99D42F0E89C45F0FA
:010666002271
:100667007401FF3395E0FEFDFCA3A3A3E0CF2FF0B9
:10067700E582158270021583E0CE3EF0E582158291
:1006870070021583E0CD3DF0E58215827002158377
:05069700E0CC3CF02264
:10069C00A8828583F0D083D0821206B31206B312DF
:1006AC0006B31206B3E473E493A3C583C5F0C58304
:1006BC00C8C582C8F0A3C583C5F0C583C8C582C8A8
:0106CC00220B
:1006CD00F8E0FBA3A3E0F925F0F0E58215827002B6
:0706DD001583E0FA38F0225A
:0906E400EBF0A3EAF0A3E9F02217
:1006ED00D083D082F8E4937012740193700DA3A39C
:1006FD0093F8740193F5828883E4737402936860B0
:06070D00EFA3A3A380DFAF
:10290300EFB40A07740D12290E740A309811A899AE
:10291300B8130CC2983098FDA899C298B811F63034
:0729230099FDC299F599220C
:10299000C08475840375C3018EC28FC18C928D91E2
:0D29A0000000E596E595AE94AF93D084223B
:102558000226C4E493A3F8E493A34003F68001F2AF
:1025680008DFF48029E493A3F85407240CC8C33384
:10257800C4540F4420C8834004F456800146F6DF53
:10258800E4800B010204081020408090242BE47E94
:10259800019360BCA3FF543F30E509541FFEE49348
:1025A800A360010ECF54C025E060A840B8E493A30F
:1025B800FAE493A3F8E493A3C8C582C8CAC583CA3A
:1025C800F0A3C8C582C8CAC583CADFE9DEE780BEF2
:0124BF00001C
:00000001FF
